:020000040800F2
:100000000080012041260008CD250008CF250008EA
:10001000D1250008D3250008D525000800000000E0
:10002000000000000000000000000000D7250008CC
:10003000D925000800000000DB250008DD250008A8
:1000400091260008912600089126000891260008B4
:1000500091260008912600089126000891260008A4
:100060009126000891260008912600089126000894
:100070009126000891260008912600089126000884
:10008000E5250008912600089126000800000000E0
:1000900000000000000000000000000091260008A1
:1000A0009126000891260008912600089126000854
:1000B0009126000891260008912600089126000844
:1000C0009126000891260008912600089126000834
:1000D00091260008912600089126000800000000E3
:1000E00091260008912600089126000800000000D3
:1000F0000000000000000000000000009126000841
:1001000000000000912600089126000891260008B2
:1001100000000000000000000000000000000000DF
:1001200091260008912600089126000891260008D3
:100130009126000800000000000000000000000000
:1001400000000000000000000000000091260008F0
:1001500091260008912600089126000891260008A3
:100160009126000891260008000000000000000011
:10017000000000000000000000000000000000007F
:1001800000000000912600080000000000000000B0
:0401900091260008AC
:1001980010B5054C237833B9044B13B10448AFF3B9
:1001A80000800123237010BDB4000020000000006F
:1001B800EC26000808B5034B1BB103490348AFF30D
:1001C800008008BD00000000B8000020EC260008F0
:1001D80081F0004102E000BF83F0004330B54FEAF0
:1001E80041044FEA430594EA050F08BF90EA020F5D
:1001F8001FBF54EA000C55EA020C7FEA645C7FEAF0
:10020800655C00F0E2804FEA5454D4EB5555B8BF12
:100218006D420CDD2C4480EA020281EA030382EA83
:10022800000083EA010180EA020281EA0303362D15
:1002380088BF30BD11F0004F4FEA01314FF4801CE8
:100248004CEA113102D0404261EB410113F0004FFA
:100258004FEA03334CEA133302D0524263EB4303B1
:1002680094EA050F00F0A780A4F10104D5F1200E4F
:100278000DDB02FA0EFC22FA05F2801841F10001AA
:1002880003FA0EF2801843FA05F359410EE0A5F17E
:1002980020050EF1200E012A03FA0EFC28BF4CF0AF
:1002A800020C43FA05F3C01851EBE37101F0004565
:1002B80007D54FF0000EDCF1000C7EEB00006EEB72
:1002C8000101B1F5801F1BD3B1F5001F0CD34908FC
:1002D8005FEA30004FEA3C0C04F101044FEA445253
:1002E80012F5800F80F09A80BCF1004F08BF5FEADA
:1002F800500C50F1000041EB045141EA050130BDBA
:100308005FEA4C0C404141EB010111F4801FA4F15C
:100318000104E9D191F0000F04BF01460020B1FAB1
:1003280081F308BF2033A3F10B03B3F120020CDAE9
:100338000C3208DD02F1140CC2F10C0201FA0CF0C7
:1003480021FA02F10CE002F11402D8BFC2F1200C2C
:1003580001FA02F120FA0CFCDCBF41EA0C019040E2
:10036800E41AA2BF01EB0451294330BD6FEA04042B
:100378001F3C1CDA0C340EDC04F11404C4F1200216
:1003880020FA04F001FA02F340EA030021FA04F328
:1003980045EA030130BDC4F10C04C4F1200220FA7F
:1003A80002F001FA04F340EA0300294630BD21FABD
:1003B80004F0294630BD94F0000F83F4801306BF83
:1003C80081F480110134013D4EE77FEA645C18BF77
:1003D8007FEA655C29D094EA050F08BF90EA020F0E
:1003E80005D054EA000C04BF1946104630BD91EA06
:1003F800030F1EBF0021002030BD5FEA545C05D109
:100408004000494128BF41F0004130BD14F5800447
:100418003CBF01F5801130BD01F0004545F0FE41BB
:1004280041F470014FF0000030BD7FEA645C1ABFF0
:10043800194610467FEA655C1CBF0B46024650EA27
:10044800013406BF52EA033591EA030F41F4002153
:1004580030BD00BF90F0000F04BF0021704730B5D9
:100468004FF4806404F132044FF000054FF00001AE
:1004780050E700BF90F0000F04BF0021704730B56F
:100488004FF4806404F1320410F0004548BF404244
:100498004FF000013EE700BF42004FEAE2014FEA99
:1004A80031014FEA02701FBF12F07F4393F07F4F74
:1004B80081F06051704732F07F4208BF704793F077
:1004C8007F4F04BF41F40021704730B54FF460748A
:1004D80001F0004521F000411CE700BF50EA01028D
:1004E80008BF704730B54FF000050AE050EA010236
:1004F80008BF704730B511F0004502D5404261EBA6
:1005080041014FF4806404F132045FEA915C3FF4E6
:10051800D8AE4FF003025FEADC0C18BF03325FEA83
:10052800DC0C18BF033202EBDC02C2F1200300FA34
:1005380003FC20FA02F001FA03FE40EA0E0021FA59
:1005480002F11444BDE600BF70B54FF0FF0C4CF447
:10055800E06C1CEA11541DBF1CEA135594EA0C0FF9
:1005680095EA0C0F00F0DEF82C4481EA030621EA34
:100578004C5123EA4C5350EA013518BF52EA03356F
:1005880041F4801143F4801338D0A0FB02CE4FF021
:100598000005E1FB02E506F00042E0FB03E54FF051
:1005A8000006E1FB03569CF0000F18BF4EF0010E49
:1005B800A4F1FF04B6F5007F64F5407404D25FEA45
:1005C8004E0E6D4146EB060642EAC62141EA5551F8
:1005D8004FEAC52040EA5E504FEACE2EB4F1FD0C3A
:1005E80088BFBCF5E06F1ED8BEF1004F08BF5FEAB8
:1005F800500E50F1000041EB045170BD06F000466A
:1006080046EA010140EA020081EA0301B4EB5C0416
:10061800C2BFD4EB0C0541EA045170BD41F480110E
:100628004FF0000E013C00F3AB8014F1360FDEBF33
:10063800002001F0004170BDC4F10004203C35DA0F
:100648000C341BDC04F11404C4F1200500FA05F392
:1006580020FA04F001FA05F240EA020001F0004233
:1006680021F0004110EBD37021FA04F642EB0601A9
:100678005EEA430E08BF20EAD37070BDC4F10C04D3
:10068800C4F1200500FA04F320FA05F001FA04F297
:1006980040EA020001F0004110EBD37041F1000183
:1006A8005EEA430E08BF20EAD37070BDC4F120058E
:1006B80000FA05F24EEA020E20FA04F301FA05F2F6
:1006C80043EA020321FA04F001F0004121FA04F29E
:1006D80020EA020000EBD3705EEA430E08BF20EA6E
:1006E800D37070BD94F0000F0FD101F000464000A8
:1006F80041EB010111F4801F08BF013CF7D041EA2A
:10070800060195F0000F18BF704703F0004652002D
:1007180043EB030313F4801F08BF013DF7D043EAFE
:100728000603704794EA0C0F0CEA135518BF95EAB4
:100738000C0F0CD050EA410618BF52EA4306D1D13B
:1007480081EA030101F000414FF0000070BD50EA5A
:10075800410606BF1046194652EA430619D094EAE4
:100768000C0F02D150EA013613D195EA0C0F05D1CE
:1007780052EA03361CBF104619460AD181EA030122
:1007880001F0004141F0FE4141F470014FF00000DA
:1007980070BD41F0FE4141F4780170BD70B54FF075
:1007A800FF0C4CF4E06C1CEA11541DBF1CEA1355F5
:1007B80094EA0C0F95EA0C0F00F0A7F8A4EB0504D7
:1007C80081EA030E52EA03354FEA013100F08880CE
:1007D8004FEA03334FF0805545EA131343EA126397
:1007E8004FEA022245EA111545EA10654FEA00264C
:1007F8000EF000419D4208BF964244F1FD0404F505
:10080800407402D25B084FEA3202B61A65EB030560
:100818005B084FEA32024FF480104FF4002CB6EB1D
:10082800020E75EB030E22BFB61A754640EA0C009D
:100838005B084FEA3202B6EB020E75EB030E22BFDD
:10084800B61A754640EA5C005B084FEA3202B6EB1E
:10085800020E75EB030E22BFB61A754640EA9C00DD
:100868005B084FEA3202B6EB020E75EB030E22BFAD
:10087800B61A754640EADC0055EA060E18D04FEA6B
:10088800051545EA16754FEA06164FEAC30343EA0B
:1008980052734FEAC2025FEA1C1CC0D111F4801FD8
:1008A8000BD141EA00014FF000004FF0004CB6E7D1
:1008B80011F4801F04BF01430020B4F1FD0C88BF70
:1008C800BCF5E06F3FF6AFAEB5EB030C04BFB6EB7B
:1008D800020C5FEA500C50F1000041EB045170BD6E
:1008E8000EF0004E4EEA113114EB5C04C2BFD4EB9B
:1008F8000C0541EA045170BD41F480114FF0000E1F
:10090800013C90E645EA060E8DE60CEA135594EA9A
:100918000C0F08BF95EA0C0F3FF43BAF94EA0C0F9D
:100928000AD150EA01347FF434AF95EA0C0F7FF412
:1009380025AF104619462CE795EA0C0F06D152EA66
:1009480003353FF4FDAE1046194622E750EA41064A
:1009580018BF52EA43067FF4C5AE50EA41047FF45B
:100968000DAF52EA43057FF4EBAE12E74FEA4102BE
:1009780012F5001215D211D56FF47873B3EB6252E9
:1009880012D94FEAC12343F0004343EA505311F010
:10099800004F23FA02F018BF404270474FF00000A2
:1009A800704750EA013005D111F0004008BF6FF0E0
:1009B800004070474FF00000704700BF53B94AB974
:1009C800002908BF00281CBF4FF0FF314FF0FF304F
:1009D80000F072B9ADF1080C6DE904CE00F006F82C
:1009E800DDF804E0DDE9022304B070472DE9F047A3
:1009F800089E04468846002B4BD18A42154667D983
:100A0800B2FA82F24AB1C2F1200701FA02F320FADF
:100A180007F7954047EA030894404FEA154E230C20
:100A2800B8FBFEF71FFA85FC0EFB178843EA08435C
:100A380007FB0CF1994209D9EB1807F1FF3080F058
:100A48001B81994240F21881023F2B445B1AA4B2E1
:100A5800B3FBFEF00EFB103344EA034400FB0CFC2E
:100A6800A44509D92C1900F1FF3380F00781A4456A
:100A780040F2048102382C4440EA0740A4EB0C04FD
:100A880000271EB1D4400023C6E900433946BDE81B
:100A9800F0878B4209D9002E00F0EB800027C6E9C9
:100AA800000138463946BDE8F087B3FA83F7002FCE
:100AB80047D18B4202D3824200F2FA80841A61EB5A
:100AC800030301209846002EE0D0C6E90048DDE780
:100AD80002B9FFDEB2FA82F2002A40F08F80491B89
:100AE8004FEA154E1FFA85F80127B1FBFEFC230CCF
:100AF8000EFB1C1143EA014308FB0CF1994207D98C
:100B0800EB180CF1FF3002D2994200F2CD808446F6
:100B1800591AA3B2B1FBFEF00EFB101443EA0444C9
:100B280008FB00F8A04507D92C1900F1FF3302D2C1
:100B3800A04500F2B6801846A4EB080440EA0C4031
:100B48009FE7C7F1200CBB4022FA0CFE4EEA030EC9
:100B580001FA07F420FA0CF521FA0CF34FEA1E48C3
:100B68002543B3FBF8F92C0C08FB19331FFA8EFA4E
:100B780044EA034309FB0AF49C4202FA07F200FA2A
:100B880007F10BD91EEB030309F1FF3080F08780D2
:100B98009C4240F28480A9F1020973441B1BADB248
:100BA800B3FBF8F008FB103345EA034400FB0AFAEC
:100BB800A24508D91EEB040400F1FF336BD2A2450D
:100BC80069D90238744440EA0940A0FB0289A4EBC1
:100BD8000A044C45C2464B4654D351D0002E69D026
:100BE800B1EB0A0564EB030404FA0CFCFD40FC407D
:100BF8004CEA0505C6E90054002747E7C2F120037F
:100C080020FA03F7954001FA02F021FA03F34FEABC
:100C1800154E3843010CB3FBFEF71FFA85F80EFB9F
:100C2800173341EA034107FB08F38B4204FA02F445
:100C380007D9691807F1FF3C2FD28B422DD9023F03
:100C48002944CB1A81B2B3FBFEF00EFB103341EA04
:100C5800034100FB08F38B4207D9691800F1FF3CF8
:100C680017D28B4215D902382944C91A40EA0747D6
:100C78003BE73746304609E70746E7E61846FBE60E
:100C88004145ABD2B8EB020A69EB0E0201381346B4
:100C9800A4E76046E9E7184695E76746D1E7814645
:100CA8007CE702382C4447E7ACF1020C2B442FE7D1
:100CB800384608E73746E9E6704700BF034613F8A9
:100CC800012B002AFBD1181A0138704710B50446C9
:100CD8000E4B18784FF47A73B3FBF0F30C4A106894
:100CE800B0FBF3F000F0AAF868B90F2C01D9012085
:100CF8000AE0002221464FF0FF3000F05DF8034B78
:100D08005C60002000E0012010BD00BF0000002052
:100D1800B000002008B50B4B1A6842F400721A6044
:100D28001A6842F480621A601A6842F480721A6083
:100D3800032000F02FF80020FFF7C8FF01F0CEFBDA
:100D4800002008BD003C0240034A1168034B1B7891
:100D58000B441360704700BFF00000200000002023
:100D6800014B1868704700BFF000002038B50446F2
:100D7800FFF7F6FF0546B4F1FF3F02D0044B1B789E
:100D88001C44FFF7EDFF401BA042FAD338BD00BF5B
:100D980000000020074AD36823F4E0631B041B0CFF
:100DA800000200F4E060184340F0BF6040F40030F7
:100DB800D060704700ED00E030B4174BDB68C3F338
:100DC8000223C3F10704042C28BF04241D1D062D8B
:100DD80018D9033B4FF0FF3505FA04F421EA040162
:100DE800994005FA03F322EA0303194300280BDBB1
:100DF8000901C9B200F1604000F5614080F80013B4
:100E080030BC70470023E5E700F00F000901C9B2C4
:100E1800024B1954F4E700BF00ED00E014ED00E0C8
:100E2800002807DB00F01F02400901239340024A13
:100E380042F82030704700BF00E100E00138B0F10F
:100E4800807F0AD2064B5860064AF02182F82310A8
:100E58000020986007221A6070470120704700BF81
:100E680010E000E000ED00E030B405682C6824F4E0
:100E780080242C60046863608368402B05D0036875
:100E880099600368DA6030BC704703689A60036849
:100E9800D960F8E70268D3B2103B0B49A1FB0313F2
:100EA8001B090A49C95CC165032B06D822F47F7265
:100EB80022F003028265806D704722F47F7222F06F
:100EC800030204328265F6E7ABAAAAAA042700083F
:100ED800836A826992B9012B0AD01BB1022B01D017
:100EE80000207047C36A13F0807F2CD10020704720
:100EF800C36AB3F1C07F28D000207047B2F5005F05
:100F080005D0022B29D9032B15D000207047032BBD
:100F180003D8DFE803F01C041C0A00207047C36AEA
:100F280013F0807F15D100207047C36AB3F1C07FEA
:100F380011D000207047C36A13F0807F01D00120D0
:100F4800704700207047012070470120704701203A
:100F5800704701207047012070470120704700004A
:100F680070B50446FFF7FCFE002C5BD00546002355
:100F780084F83430022384F835302268136823F06B
:100F88000103136023681A6812F0010F0AD0FFF7F3
:100F9800E7FE401B0528F5D920236365032084F864
:100FA800350070BD1A68204810406168A2680A437D
:100FB800E1680A4321690A4361690A43A1690A434E
:100FC800E1690A43216A0A430243616A04291ED07F
:100FD8001A602668756925F00705636A1D43042BA6
:100FE80007D1A36A1D43E36A1BB12046FFF770FFD0
:100FF80090B975612046FFF74DFFE26D3F2393409E
:10100800836000206065012384F83530C9E7E16A10
:10101800206B01430A43DBE740236365012084F822
:101028003500BEE70120BCE73F8010F038B5856D7C
:1010380090F83440012C31D0012480F8344090F8E5
:101048003540E4B2012C04D0002380F8343002206B
:1010580038BD0446022084F835000020606520462B
:10106800FFF702FFE26D3F239340AB6022681368ED
:1010780043F0160313602268536943F080035361F9
:10108800236C23B12268136843F0080313602268B5
:10109800136843F0010313600020D9E70220D7E763
:1010A800F0B583B0044600230193724B1D68724B60
:1010B800A3FB0535AD0A876D3E68C26D08239340D2
:1010C800334210D003681A6812F0040F0BD01A6864
:1010D80022F004021A60C26D08239340BB60436D7E
:1010E80043F001034365E26D01239340334209D085
:1010F8002268526912F0800F04D0BB60636D43F020
:1011080002036365E26D04239340334209D02268E9
:10111800126812F0020F04D0BB60636D43F0040341
:101128006365E26D10239340334224D0226812682D
:1011380012F0080F1FD0BB6023681A6812F4802FC2
:101148000DD01B6813F4002F04D1236C9BB12046EB
:10115800984710E0A36C73B1204698470BE01A68D3
:1011680012F4807F03D11A6822F008021A60236CF7
:101178000BB120469847E26D20239340334255D067
:101188002268126812F0100F50D0BB6094F8353006
:10119800DBB2052B0ED023681A6812F4802F33D0E7
:1011A8001B6813F4002F2AD1636C002B3ED0204615
:1011B80098473BE02268136823F0160313602268FF
:1011C800536923F080035361236CA3B12268136829
:1011D80023F008031360E26D3F239340BB600023B4
:1011E80084F83430012384F83530236D002B3FD048
:1011F800204698473CE0A36C002BE7D1EBE7E36B74
:10120800A3B12046984711E01A6812F4807F09D1EB
:101218001A6822F010021A60002384F8343001237F
:1012280084F83530E36B0BB120469847636DFBB10A
:10123800636D13F0010F17D0052384F83530226849
:10124800136823F001031360019B01330193AB4240
:1012580004D823681B6813F0010FF5D1002384F824
:101268003430012384F83530E36C0BB120469847BD
:1012780003B0F0BDB0000020B5814E1B00230F2B3A
:1012880000F2C580F0B482B039E0042200E0002208
:10129800B2403A4302345E4E46F824205D4A146850
:1012A800EA4302EA04064F6817F4803F01D045EA92
:1012B8000406584C2660646802EA04064F6817F46E
:1012C800003F01D045EA0406524C6660A46802EA71
:1012D80004064F6817F4801F01D045EA04064D4CF8
:1012E800A660E46822404E6816F4001F01D045EA63
:1012F8000402484CE26001330F2B00F28580012282
:101308009A400C6804EA0205AA42F4D14C68022CFF
:1013180001D0122C10D1DE08083650F826C003F090
:101328000704A7000F24BC402CEA040C0C69BC403D
:1013380044EA0C0440F8264004685F000326BE40D7
:10134800F64306EA040C4C6804F00304BC4044EA83
:101358000C0404604C6804F1FF3CBCF1010F03D994
:10136800112C01D0122C10D1846806EA040CCC6828
:10137800BC4044EA0C048460446824EA02024C68D5
:10138800C4F300149C4014434460C26816408A6841
:10139800BA403243C2604A6812F0805FABD0002284
:1013A80001921D4A546C44F480445464526C02F413
:1013B80080420192019A9C08A61C154A52F8267090
:1013C80003F0030296000F22B24027EA0207134AED
:1013D80090423FF45CAF02F5806290420ED002F575
:1013E800806290420CD002F5806290420AD002F5E9
:1013F800806290423FF449AF072249E7012247E75C
:10140800022245E7032243E702B0F0BC7047704769
:1014180000380140003C0140003802400000024012
:1014280012B909048161704781617047002800F092
:10143800BB8170B582B00446036813F0010F3BD03E
:10144800A74B9B6803F00C03042B2CD0A44B9B6880
:1014580003F00C03082B21D06368B3F5803F4FD00D
:10146800B3F5A02F52D09E4B1A6822F480321A602E
:101478001A6822F480221A606368002B50D0FFF7A4
:101488006FFC0546964B1B6813F4003F14D1FFF719
:1014980067FC401B6428F5D903208AE1904B5B6800
:1014A80013F4800FD8D08E4B1B6813F4003F03D081
:1014B8006368002B00F07A81236813F0020F55D07F
:1014C800874B9B6813F00C0F3ED0854B9B6803F04D
:1014D8000C03082B33D0E368002B68D0814B012222
:1014E8001A60FFF73DFC05467D4B1B6813F0020FA1
:1014F80054D1FFF735FC401B0228F5D9032058E1E9
:10150800774A136843F480331360B5E7744B1A685D
:1015180042F480221A601A6842F480321A60ABE7FB
:10152800FFF71EFC05466E4B1B6813F4003FC3D043
:10153800FFF716FC401B6428F5D9032039E1684BF6
:101548005B6813F4800FC6D1654B1B6813F0020F5C
:1015580004D0E368012B01D001202AE1604A136816
:1015680023F0F803216943EAC1031360236813F0E9
:10157800080F40D0636963B35B4B01221A60FFF721
:10158800EFFB0546564B5B6F13F0020F33D1FFF7A5
:10159800E7FB401B0228F5D903200AE1504A1368EB
:1015A80023F0F803216943EAC1031360DEE74D4BDA
:1015B80000221A60FFF7D4FB0546494B1B6813F05D
:1015C800020FD3D0FFF7CCFB401B0228F5D903202C
:1015D800EFE0454B00221A60FFF7C2FB0546404B7F
:1015E8005B6F13F0020F06D0FFF7BAFB401B02280F
:1015F800F5D90320DDE0236813F0040F79D0384BC8
:101608001B6C13F0805F33D100230193344B1A6CA9
:1016180042F080521A641B6C03F080530193019BC3
:101628000125324B1B6813F4807F23D0A368012B5C
:1016380034D0052B38D02A4B1A6F22F001021A67D2
:101648001A6F22F004021A67A368002B36D0FFF73E
:1016580087FB0646224B1B6F13F0020F48D1FFF79A
:101668007FFB801B41F288339842F3D90320A0E026
:101678000025D6E71D4A136843F480731360FFF70B
:101688006FFB0646194B1B6813F4807FCED1FFF71A
:1016980067FB801B0228F5D903208AE0104A136FE4
:1016A80043F001031367CFE70D4B1A6F42F00402B2
:1016B8001A671A6F42F001021A67C5E7FFF750FB75
:1016C8000646074B1B6F13F0020F11D0FFF748FBBC
:1016D800801B41F288339842F3D9032069E000BFA8
:1016E8000038024000004742800E47420070004028
:1016F800E5B9A369002B5BD0304A926802F00C026E
:10170800082A58D0022B17D02D4B00221A60FFF759
:1017180027FB0446294B1B6813F0007F42D0FFF7D4
:101728001FFB001B0228F5D9032042E0234A136C53
:1017380023F080531364DCE7214B00221A60FFF783
:101748000FFB05461D4B1B6813F0007F06D0FFF703
:1017580007FB401B0228F5D903202AE0E369226A27
:101768001343626A43EA8213A26A5208013A43EABF
:101778000243E26A43EA0263104A5360104B0122B3
:101788001A60FFF7EDFA04460C4B1B6813F0007F54
:1017980006D1FFF7E5FA001B0228F5D9032008E077
:1017A800002006E0002004E001207047012000E04E
:1017B800002002B070BD0120FBE700BF00380240E6
:1017C80060004742264B9B6803F00C03042B44D06F
:1017D800082B01D0234870472DE9F04B204B5A685D
:1017E80002F03F025B6813F4800F13D01C4B59685A
:1017F800C1F3881100231C48A1FB0001FFF7DEF8A4
:10180800174B5B68C3F3014301335B00B0FBF3F094
:10181800BDE8F08B124B5B68C3F388131E460027A4
:101828005C010025E41A65EB0705A90141EA94610A
:10183800A001001B61EB0501CB0043EA5073C40013
:10184800A01943EB07018B0243EA90538402204618
:1018580019460023FFF7B2F8D2E70348704700BFE4
:10186800003802400024F40040787D01002800F090
:101878009D8070B504464F4B1B6803F00F038B42E5
:1018880009D2CBB24B4A1370136803F00F038B4293
:1018980001D0012070BD236813F0020F17D013F098
:1018A800040F04D0444A936843F4E05393602368D8
:1018B80013F0080F04D0404A936843F460439360E0
:1018C8003D4A936823F0F003A068034393600D46F4
:1018D800236813F0010F32D06368012B21D09A1EC0
:1018E800012A25D9344A126812F0020F60D0324911
:1018F8008A6822F0030213438B60FFF731FA064629
:101908002D4B9B6803F00C036268B3EB820F16D073
:10191800FFF726FA801B41F288339842F0D903205A
:10192800B8E7254A126812F4003FE0D10120B1E778
:10193800214A126812F0007FD9D10120AAE71D4B75
:101948001B6803F00F03AB4209D9EAB2194B1A70AE
:101958001B6803F00F03AB4201D001209AE723680C
:1019680013F0040F06D0144A936823F4E053E16897
:101978000B439360236813F0080F07D00E4A93684F
:1019880023F46043216943EAC1039360FFF71AFF18
:10199800094B9B68C3F30313084AD35CD840084B30
:1019A80018600020FFF792F9002073E701207047C4
:1019B80001206FE7003C0240003802400C27000875
:1019C800B0000020014B1868704700BFB00000202D
:1019D80008B5FFF7F7FF044B9B68C3F38223034A5C
:1019E800D35CD84008BD00BF003802401C2700085F
:1019F80008B5FFF7E7FF044B9B68C3F34233034A7C
:101A0800D35CD84008BD00BF003802401C2700083E
:101A18000268D36823F0C003D360202380F83930EC
:101A280070470268D36823F49073D36002685369DF
:101A380023F001035361202380F83A3070470000F7
:101A48002DE9F84304460268136923F44053C1683A
:101A58000B43136183680269134342691343C269E4
:101A68001A430168CB6823F4164323F00C0313438D
:101A7800CB600268536923F4407381690B43536157
:101A8800C369B3F5004F60D00368B84A934200F0C9
:101A9800148102F58062934200F00F81FFF798FFEE
:101AA80000EB800000EB80006568AD00B0FBF5F549
:101AB800AF4FA7FB05356D092E01FFF789FF00EB36
:101AC800800000EB80006568AD00B0FBF5F9FFF71A
:101AD8007FFF00EB800000EB80006568AD00B0FB85
:101AE800F5F5A7FB05356D094FF0640808FB15955A
:101AF8002D013235A7FB05356D0905F0F005354494
:101B0800FFF766FF00EB800000EB80006668B60018
:101B1800B0FBF6F6FFF75CFF00EB800000EB8000FF
:101B280063689B00B0FBF3F0A7FB0030400908FB9B
:101B380010684FEA081808F13208A7FB0837C7F3FE
:101B4800431723682F449F600DE10368874A934237
:101B58005BD002F58062934257D0FFF739FF00EB64
:101B6800800000EB800065686D00B0FBF5F5804FE4
:101B7800A7FB05356D092E01FFF72AFF00EB800052
:101B880000EB800065686D00B0FBF5F9FFF720FFFA
:101B980000EB800000EB800065686D00B0FBF5F598
:101BA800A7FB05356D094FF0640808FB1595ED0096
:101BB8003235A7FB05356D096D0005F4F875354418
:101BC800FFF706FF00EB800000EB800066687600F8
:101BD800B0FBF6F6FFF7FCFE00EB800000EB8000A0
:101BE80063685B00B0FBF3F3A7FB03235B0908FB07
:101BF80013684FEAC80808F13208A7FB0837C7F38B
:101C0800421723682F449F60ADE0FFF7F1FE00EB19
:101C1800800000EB800065686D00B0FBF5F5544F5F
:101C2800A7FB05356D092E01FFF7E2FE00EB8000EA
:101C380000EB800065686D00B0FBF5F9FFF7D8FE92
:101C480000EB800000EB800065686D00B0FBF5F5E7
:101C5800A7FB05356D094FF0640808FB1595ED00E5
:101C68003235A7FB05356D096D0005F4F875354467
:101C7800FFF7BEFE00EB800000EB80006668760090
:101C8800B0FBF6F6FFF7B4FE00EB800000EB800037
:101C980063685B00B0FBF3F3A7FB03235B0908FB56
:101CA80013684FEAC80808F13208A7FB0837C7F3DA
:101CB800421723682F449F6055E0FFF799FE00EB19
:101CC800800000EB80006568AD00B0FBF5F5284F9B
:101CD800A7FB05356D092E01FFF78AFE00EB800092
:101CE80000EB80006568AD00B0FBF5F9FFF780FEFA
:101CF80000EB800000EB80006568AD00B0FBF5F5F7
:101D0800A7FB05356D094FF0640808FB15952D01F3
:101D18003235A7FB05356D0905F0F0053544FFF7A9
:101D280067FE00EB800000EB80006668B600B0FB41
:101D3800F6F6FFF75DFE00EB800000EB80006368BD
:101D48009B00B0FBF3F0A7FB0030400908FB1068CC
:101D58004FEA081808F13208A7FB0837C7F34317FA
:101D680023682F449F60BDE8F88300BF001001403E
:101D78001F85EB512DE9F04105460F46164698465A
:101D8800069C2B681B6837EA03030CBF012300235A
:101D9800B3421DD1B4F1FF3FF3D02CB1FEF7E0FF01
:101DA800A0EB0800A042ECD92A68D36823F4D073CA
:101DB800D3602A68536923F001035361202385F80F
:101DC800393085F83A30002385F83830032000E0B0
:101DD8000020BDE8F08158B310B5044690F83930BA
:101DE8000BB3242384F839302268D36823F40053D2
:101DF800D3602046FFF724FE2268136923F490433A
:101E080013612268536923F02A0353612268D36857
:101E180043F40053D3600020E063202384F8393072
:101E280084F83A3010BD80F8383000F073FBD8E7FA
:101E3800012070472DE9F04182B01E4690F83930F4
:101E4800DBB2202B55D104460D469046002955D0CB
:101E5800002A55D090F83830012B53D0012380F850
:101E680038300023C363212380F83930FEF778FF28
:101E78000746A4F82480A4F8268010E000963B4684
:101E8800002280212046FFF775FF00283CD12B88CF
:101E98002268C3F3080353602369C3B90235E38C8E
:101EA8009BB2B3B1E38C013B9BB2E384A368B3F567
:101EB800805FE3D000963B46002280212046FFF752
:101EC80059FF18BB2A7823685A600135E7E70135BE
:101ED800E5E700963B46002240212046FFF74AFFEF
:101EE8000346A8B9202284F83920002284F8382033
:101EF80000E00223184602B0BDE8F0810123F9E7AB
:101F08000123F7E70223F5E70323F3E70323F1E7C8
:101F18000323EFE730B583B090F83A40E4B2202CC1
:101F28003DD100293ED0002A3ED090F83830012B10
:101F38003CD013460A460446012180F838108262D4
:101F480083850025C563222180F83A10416B184823
:101F5800C863616B17480864616B1748C864616B94
:101F68000D6521680431606BFFF760F801952368FF
:101F78001A6801925A680192019A84F83850DA680E
:101F880042F48072DA602268536943F001035361B6
:101F98002268536943F040035361284600E0022059
:101FA80003B030BD0120FBE70120F9E70220F7E785
:101FB800C51F0008052000081120000808B5836B1C
:101FC8000268126812F4807F13D10022DA8519683A
:101FD800CA6822F48072CA6019684A6922F001024C
:101FE8004A6119684A6922F040024A61202283F84E
:101FF8003A20184600F0C6F908BD704708B5806B4E
:10200800FFF7FBFF08BD704710B5846B23685A695A
:1020180094F83930DBB2212B10D023685A6902F0CA
:10202800400294F83A30DBB2222B11D0E36B43F034
:102038001003E3632046FFF7E6FF10BD02F08002BD
:10204800002AEAD00023E3842046FFF7E1FCE4E716
:10205800002AEBD00023E3852046FFF7E2FCE5E702
:1020680008B5C2B220210248FFF7DAF908BD00BF5F
:102078000000024038B5054600240FE0094B04EB88
:10208800850253F8222003EB420103EB820300226E
:10209800B1F86010986FFFF7C3F90134032CEDDD38
:1020A80038BD00BF0800002010B504462046FEF7E2
:1020B80005FE4FF47A7382B221460348FFF7BAFE51
:1020C8000028F3D110BD00BF54010020F0B589B03D
:1020D80000240094204B1A6B42F004021A631A6B16
:1020E80002F004020092009A01941A6B42F0010275
:1020F8001A631A6B02F001020192019A02941A6B98
:1021080042F002021A631B6B03F002030293029B64
:1021180005940794012704970226069608AD4FF404
:10212800FC6345F8143D29460C48FFF7A7F80497C7
:10213800059406964FF4CF63039329460848FFF7A2
:102148009DF804970594069680230393294605482D
:10215800FFF794F809B0F0BD0038024000000240D3
:10216800000402400008024000B583B0002101913C
:10217800094B1A6B42F400121A631B6B03F4001329
:102188000193019B0A461020FEF716FE1020FEF769
:1021980047FE03B05DF804FB0038024008B5084864
:1021A800084B03604FF4E133436000238360C3604E
:1021B80003610C2242618361C361FFF70CFE08BD15
:1021C800540100200044004070B50646002527E071
:1021D800164B04EB860253F8222003EB420103EB73
:1021E80082030122B1F86010986FFFF719F90134E2
:1021F800032C11DCA542EBD00C4B04EB860253F800
:10220800222003EB420103EB82030022B1F86010A5
:10221800986FFFF705F9EAE70120FEF7A7FD0135FA
:10222800032D01DC0024E3E770BD00BF0800002097
:1022380070B50646032527E0164B04EB860253F8D3
:10224800222003EB420103EB82030122B1F8601064
:10225800986FFFF7E5F80134032C11DCA542EBD0A9
:102268000C4B04EB860253F8222003EB420103EBEC
:1022780082030022B1F86010986FFFF7D1F8EAE7FF
:102288000120FEF773FD013D002D01DB0024E3E78B
:1022980070BD00BF0800002038B5002523E02046A7
:1022A800FFF7E8FE0134052C19DC114B53F8242004
:1022B800002AF4D06B1C82EAE270A0EBE27093FB78
:1022C800F0F100FB1133002BECD1002A03DD20468E
:1022D800FFF77AFFE6E72046FFF7AAFFE2E70020CC
:1022E800FEF744FD0135132D01DC0024DBE738BD82
:1022F800D00000200000000070B5002304E01E4A52
:10230800002142F823100133052BF8DD00241FE0DB
:10231800681EFEF7AFF816A3D3E90023FEF73EFACE
:1023280002460B4600201549FDF756FF0022144BC4
:10233800FEF70AF90022114BFDF750FFFEF716FBD6
:1023480000FB05F090FBF5F50B4B43F824503446A1
:10235800052C0ADC661C084B33441D7E002DD7D1A2
:10236800054B002243F82420F1E7FFF795FF70BDE5
:102378000000000000C05840D00000200000F03FDE
:102388000000334010B50120FFF76AFE094B1B7EA1
:10239800B92B03D0074B0322DA7710BD064C204631
:1023A800FFF782FE2046FFF77FFE2046FFF77CFE00
:1023B800F0E700BFD00000202427000830B597B010
:1023C800302200210AA800F085F90024059406941B
:1023D8000794089409940094254D2B6C43F080537E
:1023E8002B642B6C03F080530093009B0194214ACB
:1023F800136823F4404343F400431360136803F461
:1024080040430193019B02230A9301230D93102358
:102418000E9310940AA8FFF709F80F230593069462
:1024280007940894099402942B6B43F001032B63DF
:102438002B6B03F001030293029B03942B6B43F075
:1024480002032B632B6B03F002030393039B049497
:102458002B6B43F004032B632B6B03F004030493EF
:10246800049B214605A8FFF701FA17B030BD00BF4D
:10247800003802400070004008B5FEF74BFCFFF73B
:102488009DFFFFF723FEFFF76FFEFFF787FE082289
:102498000E490F48FFF73EFD03E00E4BDB7F032B91
:1024A80009D00020FFF7DCFD0A4B1B7EA82BF4D1D6
:1024B800FFF722FFF1E7074C082204F1180104484E
:1024C800FFF728FD0123E377EBE700BFE8000020D2
:1024D80054010020D00000207047000082B0002185
:1024E80000910B4B5A6C42F480425A645A6C02F4C5
:1024F80080420092009A01911A6C42F080521A644C
:102508001B6C03F080530193019B02B0704700BF1E
:102518000038024030B589B0002303930493059333
:10252800069307930268234B9A4201D009B030BD45
:1025380004460025019503F5FA331A6C42F400327B
:102548001A641A6C02F400320192019A02951A6B0D
:1025580042F001021A631B6B03F001030293029B12
:102568000C23039302230493012305930323069367
:102578000723079303A91048FEF780FE0F48104B66
:1025880003604FF0006343608560C5604FF480636B
:10259800036145618561C5614FF44033036245625B
:1025A800FEF7DEFC18B9054B63639C63BEE7FFF7D3
:1025B80093FFF8E70044004000000240F4000020C8
:1025C800886002407047FEE7FEE7FEE7FEE77047D7
:1025D8007047704708B5FEF7B7FB08BD08B5024855
:1025E800FEF75EFD08BD00BFF40000200F49D1F8DA
:1025F800883043F47003C1F888300D4B1A6842F0F4
:1026080001021A60002098601A6822F0847222F48D
:1026180080321A60074A5A601A6822F480221A60C7
:10262800D8604FF000638B60704700BF00ED00E09A
:102638000038024010300024DFF834D0002103E0D5
:102648000C4B5B58435004310B480C4B42189A42D0
:10265800F6D30B4A02E0002342F8043B094B9A42A6
:10266800F9D3FFF7C3FF00F011F8FFF705FF704734
:10267800008001203827000800000020B400002056
:10268800B400002094010020FEE7000070B50D4E54
:102698000D4CA41BA4100025A54209D10B4E0C4CCF
:1026A80000F020F8A41BA4100025A54205D170BD98
:1026B80056F8253098470135EEE756F82530984703
:1026C8000135F2E7302700083027000830270008D6
:1026D8003427000802440346934200D1704703F8A8
:1026E800011BF9E7F8B500BFF8BC08BC9E46704767
:0C26F800F8B500BFF8BC08BC9E46704757
:10270400000610160006101600000000000000006D
:102714000102030406070809000000000102030483
:0427240041434B00E2
:08272800CCE2FF7F010000007C
:04273000BD010008DF
:0427340099010008FF
:10273800010000001000000000000000010000007F
:102748000200000003000000040000000500000073
:102758000600000007000000080000000900000053
:102768000A0000000B00000001000000000000004B
:102778000300000002000000050000000400000043
:102788000700000006000000090000000800000023
:102798000B0000000A0000000004080020001000E0
:1027A8000004000100028000400080004000000298
:1027B80000000240000402400004024000040240FD
:1027C80000040240000002400000024000080240ED
:1027D80000040240000002400000024000040240E1
:0427E8000024F400D5
:040000050800264188
:00000001FF
